:100000000C9438000C944D000C944D000C944D0051
:100010000C944D000C944D000C944D000C944D002C
:100020000C944D000C944D000C944D000C944D001C
:100030000C944D000C944D000C944D000C944D000C
:100040000C945C000C944D000C944D000C944D00ED
:100050000C944D000C944D000C944D000C944D00EC
:100060000C944D000C944D000C944D000C944D00DC
:1000700011241FBECFEFD0E1DEBFCDBF11E0A0E065
:10008000B1E0E2E0F1E002C005900D92A230B107CC
:10009000D9F70E944F000C947F000C9400008FEF62
:1000A00087B988B982E084BD93E095BD99EF97BD8B
:1000B00080936E007894FFCF1F920F920FB60F922D
:1000C00011248F939F9380910001909101010197DA
:1000D0009093010180930001892B51F498B181E044
:1000E000892788B981E792E090930101809300010C
:1000F0009F918F910F900FBE0F901F901895F894BD
:02010000FFCF2F
:02010200710288
:00000001FF
