:100000000C9438000C9455000C9455000C94550039
:100010000C9455000C9455000C9455000C9455000C
:100020000C9455000C9455000C9455000C945500FC
:100030000C9455000C9455000C9455000C945500EC
:100040000C9463000C9455000C9455000C945500CE
:100050000C9455000C9455000C9455000C945500CC
:100060000C9455000C9455000C9455000C945500BC
:1000700011241FBECFEFD0E1DEBFCDBF11E0A0E065
:10008000B1E0E8E4F1E002C005900D92A430B107C0
:10009000D9F721E0A4E0B1E001C01D92A530B2077C
:1000A000E1F70E9457000C94A2000C9400008FEF1F
:1000B00087B982E084BD94E095BD9BE997BD8093AC
:1000C0006E007894FFCF1F920F920FB60F921124FB
:1000D0002F938F939F93EF93FF93CF93DF9300D052
:1000E00000D0CDB7DEB780EE898380ED8A8380EBC8
:1000F0008B8380E78C838091040190E0FC01E050C9
:10010000FF4F2081FE01E80FF91F8181820F88B91E
:10011000809104018F5F843019F08093040102C044
:10012000109204010F900F900F900F90DF91CF91DC
:10013000FF91EF919F918F912F910F900FBE0F9094
:080140001F901895F894FFCF01
:0401480001020304A9
:00000001FF
