:100000000C9438000C9455000C9455000C94550039
:100010000C9455000C9455000C9455000C9455000C
:100020000C9455000C9455000C9455000C945500FC
:100030000C9455000C9455000C9455000C945500EC
:100040000C94C9000C9455000C9455000C94550068
:100050000C9455000C9455000C9455000C945500CC
:100060000C9455000C9455000C9455000C945500BC
:1000700011241FBECFEFD0E1DEBFCDBF11E0A0E065
:10008000B1E0E2E3F2E002C005900D92A430B107C6
:10009000D9F721E0A4E0B1E001C01D92A530B2077C
:1000A000E1F70E9457000C9417010C9400008FEFA9
:1000B00087B982E084BD94E095BD9BE997BD8093AC
:1000C0006E00789480EC80937C0087E880937A00BF
:1000D000EAE7F0E00F2EF8E7EF2EF12CF02DC0E06C
:1000E000D1E008EE13E00F2EF4E6DF2EF02D808134
:1000F00080648083808186FDFDCFD7014D915C9126
:100100009A01369527953695279536952795A5EC2E
:10011000B0E20E940801929582958F7089279F70A6
:1001200089278883809F9001819F300D909F300D9B
:100130001124421B530B9A01369527953695279526
:10014000ABE7B4E10E940801969587958983D89E14
:100150009001D99E300D1124421B530B9A01ADEC36
:10016000BCEC0E9408019695879596958795969583
:1001700087958A839C01220F331F880F991F880F50
:10018000991F880F991F820F931F481B590B4B8390
:10019000AECF1F920F920FB60F9211242F938F9311
:1001A0009F93EF93FF93CF93DF9300D000D0CDB711
:1001B000DEB780EE898380ED8A8380EB8B8380E7D6
:1001C0008C838091040190E0FC01E050FF4F20817E
:1001D000FE01E80FF91F8181820F88B98091040127
:1001E0008F5F843019F08093040102C010920401E3
:1001F0000F900F900F900F90DF91CF91FF91EF91A3
:100200009F918F912F910F900FBE0F901F90189577
:10021000A29FB001B39FC001A39F700D811D112447
:10022000911DB29F700D811D1124911D0895F894A8
:02023000FFCFFE
:0402320001020304BE
:00000001FF
