:100000000C9438000C9442000C9442000C94420072
:100010000C9442000C9442000C9442000C94420058
:100020000C9442000C9442000C9442000C94420048
:100030000C9442000C9442000C9442000C94420038
:100040000C9442000C9442000C9442000C94420028
:100050000C9442000C9442000C9442000C94420018
:100060000C9442000C9442000C9442000C94420008
:1000700011241FBECFEFD0E1DEBFCDBF0E944400F0
:100080000C9456000C9400008FEF87B98EEF88B95E
:1000900091E02FE73AE186E0215030408040E1F7DF
:1000A00000C0000088B1892788B9F3CFF894FFCF4A
:00000001FF
