:100000000C9438000C944D000C944D000C944D0051
:100010000C944D000C944D000C944D000C944D002C
:100020000C944D000C944D000C944D000C944D001C
:100030000C944D000C944D000C944D000C944D000C
:100040000C944D000C944D000C944D000C944D00FC
:100050000C944D000C944D000C944D000C944D00EC
:100060000C944D000C944D000C944D000C944D00DC
:1000700011241FBECFEFD0E1DEBFCDBF11E0A0E065
:10008000B1E0E8E1F1E002C005900D92A031B107C6
:10009000D9F70E9477000C948A000C940000CF934B
:1000A000DF93CDB7DEB760970FB6F894DEBF0FBE13
:1000B000CDBF90E1E0E0F1E0DE01119601900D92FC
:1000C0009A95E1F7E1E0F0E0EC0FFD1FE80FF11D7C
:1000D000808188B960960FB6F894DEBF0FBECDBFA1
:1000E000DF91CF9108958FEF87B988B908950E9465
:1000F0007300C0E08C2F0E944F002FE784E89EE140
:10010000215080409040E1F700C00000CF5FC03137
:0801100089F7EFCFF894FFCF4F
:10011800039F250D9949411F010911C1638561712B
:00000001FF
